:100000000C9434000C9451000C9451000C94510049
:100010000C9451000C9451000C9451000C9451001C
:100020000C9451000C9451000C9451000C9451000C
:100030000C9451000C9451000C9451000C945100FC
:100040000C9451000C9451000C9451000C945100EC
:100050000C9451000C9451000C9451000C945100DC
:100060000C9451000C94510011241FBECFEFD8E026
:10007000DEBFCDBF11E0A0E0B1E0E2E3F4E002C0FA
:1000800005900D92A630B107D9F721E0A6E0B1E0C6
:1000900001C01D92AA30B207E1F70E9482000C94C1
:1000A00017020C9400005C985C9A5C980895EF929B
:1000B000FF920F931F93CF93DF938C01C0E0D0E0AA
:1000C000EE24E394F12CF8012081C7010C2E01C02D
:1000D000880F0A94EAF7822311F02A9A01C02A981D
:1000E0000E9453002196C330D10569F7DF91CF916B
:1000F0001F910F91FF90EF90089584E084B980E103
:100100008AB908950E947D0081E090E00E94F60087
:10011000EC0111E002E084E0F82E1883CE010E9489
:1001200057002FEF81EE94E0215080409040E1F79E
:1001300000C000000883CE010E9457002FEF81EE1F
:1001400094E0215080409040E1F700C00000F88228
:10015000CE010E9457002FEF81EE94E021508040A5
:100160009040E1F700C000001882CE010E945700C5
:100170002FEF81EE94E0215080409040E1F700C0E5
:100180000000F882CE010E9457002FEF81EE94E02C
:10019000215080409040E1F700C000000883CE016C
:1001A0000E9457002FEF81EE94E021508040904054
:1001B000E1F700C000001883CE010E9457002FEF26
:1001C00081EE94E0215080409040E1F700C00000B3
:1001D0001882CE010E9457002FEF81EE94E021504B
:1001E00080409040E1F700C0000097CF0F931F932D
:1001F000CF93DF938230910510F482E090E0E0919C
:100200000801F091090120E030E0A0E0B0E0309773
:1002100019F1408151810281138148175907C8F0B3
:100220008417950769F4109731F012960C93129782
:1002300013961C9327C0009308011093090122C054
:100240002115310519F04217530718F49A01BD0121
:10025000EF01DF01F801DBCF21153105F9F0281B93
:10026000390B2430310580F48A819B816115710539
:1002700021F0FB019383828304C090930901809352
:100280000801FE01329644C0FE01E20FF31F819384
:10029000919322503109398328833AC02091060175
:1002A00030910701232B41F4209102013091030189
:1002B0003093070120930601209100013091010144
:1002C0002115310541F42DB73EB7409104015091FD
:1002D0000501241B350BE0910601F0910701E2179F
:1002E000F307A0F42E1B3F0B2817390778F0AC0159
:1002F0004E5F5F4F2417350748F04E0F5F1F509336
:100300000701409306018193919302C0E0E0F0E081
:10031000CF01DF91CF911F910F910895CF93DF937C
:10032000009709F481C0FC01329713821282A091D8
:100330000801B0910901109781F420813181820F69
:10034000931F20910601309107012817390751F5B5
:10035000F0930701E093060167C0ED0120E030E073
:10036000CE17DF0740F44A815B819E01411551059C
:10037000F1F0EA01F5CFD383C28340815181840F2C
:10038000951FC817D90759F488819981840F951F43
:100390000296918380838A819B8193838283211536
:1003A000310529F4F0930901E09308013DC0E9010A
:1003B000FB83EA8349915991C40FD51FEC17FD07C0
:1003C00061F480819181840F951F0296E9019983E0
:1003D0008883828193819B838A83E0E0F0E0129698
:1003E0008D919C911397009719F0FD01DC01F7CFD7
:1003F0008D919C9111979D012E5F3F4F820F931F0E
:1004000020910601309107012817390769F43097C8
:1004100029F4109209011092080102C0138212827D
:10042000B0930701A0930601DF91CF910895F8944E
:02043000FFCFFC
:0604320000000A01200099
:00000001FF
