:100000000C944D000C946A000C946A000C946A00E5
:100010000C946A000C946A000C946A000C946A00B8
:100020000C946A000C94C8000C946A000C946A004A
:100030000C946A000C9465010C946A000C946A009C
:100040000C946A000C946A000C946A000C946A0088
:100050000C946A000C946A000C946A000C946A0078
:100060000C946A000C946A0053034B034F0338034B
:1000700042033D034603AD04AD04A504A904AD0449
:10008000AD04AD04B004B404B004CB04CD04D60474
:10009000DA04D204DE04E304E10411241FBECFEF2E
:1000A000D8E0DEBFCDBF11E0A0E0B1E0E8E6F8E1C6
:1000B00002C005900D92AA3DB107D9F722E0AAED42
:1000C000B1E001C01D92A030B207E1F70E942B07FA
:1000D0000C94320C0C9400001AB814B887B1887FC5
:1000E00087B980E480937C0087E080937A008091D8
:1000F0007A00806880937A0080917A00806480938F
:100100007A0080917A0086FDFCCF809178009091F2
:100110007900089590917C00907E8F71892B809357
:100120007C0080917A00806480937A0080917A00CC
:1001300086FDFCCF80917800909179000895CF9250
:10014000DF92EF92FF921F93CF93DF93182FD62F5A
:10015000C0E0C12CD12C7601CD1749F0812F0E942F
:100160008A00C80ED91EE11CF11CCF5FF5CF2C2FE1
:1001700030E040E050E0C701B6010E94FF07C9012E
:10018000DF91CF911F91FF90EF90DF90CF90089576
:100190001F920F920FB60F9211242F938F939F935C
:1001A0008091DB019091DC0101969093DC018093BA
:1001B000DB018091DB019091DC018138994239F4B7
:1001C00081E08093DA011092DC011092DB019F91B3
:1001D0008F912F910F900FBE0F901F901895F8944C
:1001E000E1EBF0E081E08083A0EBB0E08C918C7FCC
:1001F0008C938081877F8083789408951092DC01AE
:100200001092DB011092DA01F894E0E7F0E08081CF
:10021000816080831092B20078940895F894E0E7AA
:10022000F0E080818E7F808378940895CF93DF9370
:10023000EC0188E091E00E949A0664E070E0CE0153
:100240000E94BE04DF91CF910C94FE000F931F9388
:10025000CF93DF938C01EB01CB010E94C703BE015A
:10026000C8010E94BC068091DA01882379F00E94BF
:100270000E018C8181508C831092DD01811103C0AD
:100280004AE050E015C043E050E012C0CE010E94A9
:10029000FD03811115C08091DD018F5F8093DD0129
:1002A000882371F00E940E011092DD0144E050E0BD
:1002B000BE01C801DF91CF911F910F910C94B9023B
:1002C000DF91CF911F910F9108951F920F920FB65A
:1002D0000F9211242F933F938F939F938091E2016C
:1002E0009091E30101969093E3018093E201809164
:1002F000E0019091E10101969093E1018093E0018A
:100300008091E2019091E301489739F41092E30162
:100310001092E20181E08093DF012091E0013091B1
:10032000E1018091FA019091FB012817390719F436
:1003300081E08093DE019F918F913F912F910F90EB
:100340000FBE0F901F901895F894E1E8F0E081E05F
:100350008083A0E8B0E08C918C7F8C938081877E35
:10036000808378940895009729F0019749F488E3F1
:1003700099E302C08EE49EE09093FB018093FA0122
:100380001092E3011092E2011092E1011092E0015B
:100390001092DF011092DE01F89480916F0081606D
:1003A00080936F00109285001092840078940895D5
:1003B000F894EFE6F0E080818E7F80837894089552
:1003C0008CEF9FEF0E942A0380E090E00C94B30131
:1003D0000F931F93CF93DF938C01EB01CB010E940E
:1003E000C7038091DE01882329F00E94D80143E0F1
:1003F00050E009C0CE010E94FD03811108C00E9497
:10040000D80141E050E0BE01C8010E94B9028091CC
:10041000DF018823C9F01092DF01809100019091E3
:100420000101049639F48BEF9FEF0E942A038BEFB2
:100430009FEF06C08CEF9FEF0E942A038CEF9FEF87
:100440009093010180930001DF91CF911F910F9153
:100450000895CF93DF93EC016BE070E00E94BE043F
:100460008DE191E00E949A0681E090E00E94B30144
:1004700083E08C83DF91CF9108950F931F93CF93E7
:10048000DF93EC018B018091DE01882361F00E94F3
:10049000D80143E050E0B801CE01DF91CF911F9128
:1004A0000F910C94B9028091DF018823C9F010925A
:1004B000DF018091000190910101049639F48BEFE6
:1004C0009FEF0E942A038BEF9FEF06C08CEF9FEFF8
:1004D0000E942A038CEF9FEF90930101809300010B
:1004E000DF91CF911F910F910895AF92BF92CF925C
:1004F000DF92EF92FF920F931F93CF93DF937C01D4
:10050000EB015A01690188E090E00E942708FC0194
:10051000892B21F481E090E00E94320CD183C083CA
:10052000B382A282D582C48217830683DE0111962C
:10053000AA0FBB1FAE0DBF1DED93FC93CD2B71F425
:10054000D701ED93FC93CDE0D0E08EE2A82E81E0C0
:10055000B82EC12CD12C00E010E0D5CFDF91CF9187
:100560001F910F91FF90EF90DF90CF90BF90AF90D1
:100570000895DC01CB01FA013196EE0FFF1FEA0F5F
:10058000FB1F0190F081E02DED93FC930480F58139
:10059000E02D309709F0099408950F931F93CF939E
:1005A000DF938C010E5F1F4FEC016E96F801808186
:1005B00091810E94BF08F801119211928F01EC17EE
:1005C000FD07A1F7DF91CF911F910F9108950F9330
:1005D0001F93CF93DF93EC018B01E881F9810480B5
:1005E000F581E02DCB010995E881F9818081918128
:1005F0000D9739F00680F781E02DB801CE010995FD
:10060000F3CFCE01DF91CF911F910F910C94CD02CA
:1006100062E085E290E00C942007CF93DF93D82F1F
:10062000C0E0CD1764F464E08BE290E00E94200704
:1006300064E08BE290E00E942007CF5FF2CFDF9171
:10064000CF91089562E085E290E00E94140783E074
:100650000C940D03CF93DF93EC010E942203FE0163
:100660003496E730F10530F5EC5CFF4F0C9421082F
:100670000E94080381E00E940D030E94080381E0AC
:100680000E940D030E94080381E010C00E9408032D
:1006900081E00E940D030E94080382E007C00E94CF
:1006A000080382E0EDCF0E94080383E0DF91CF9141
:1006B0000C940D03DF91CF910895CF93DF93EB015D
:1006C000CB010E94E903882369F1CE010E94DF0378
:1006D000882341F0CE010E94F303882319F08CEFA8
:1006E0009FEF0CC0CE010E94DF0381110BC0CE0131
:1006F0000E94F303882331F08DEF9FEFDF91CF91BC
:100700000C942A03CE010E94DF03882341F0CE011E
:100710000E94F303811103C08EEF9FEFEFCF81E0C2
:1007200090E0ECCFCE010E94DF03811108C0CE0122
:100730000E94F303882319F080E090E0DFCFCE0120
:100740000E94DF03882341F0CE010E94F303811150
:1007500003C082E090E0D2CFCE010E94DF03882365
:1007600041F0CE010E94F303882319F08FEF9FEF31
:10077000C5CFDF91CF910C94220362E084E290E038
:100780000E94090764E08AE290E00C940907CF9385
:10079000DF93EC0164E182E00E949F009E838D83E1
:1007A00064E180E00E949F009A87898764E181E08C
:1007B0000E949F0098878F83DF91CF91089521E059
:1007C000FC0185819681823C914008F420E0822FD3
:1007D000089521E0FC0187819085843F914008F4D1
:1007E00020E0822F089521E0FC01818592858632E8
:1007F000924008F420E0822F0895FC0185819681C3
:10080000823C914070F087819085843F914048F010
:1008100091E0218532852632324008F490E0892F1C
:10082000089580E00895FC0185819681823C914085
:1008300070F487819085843F914048F491E0218550
:1008400032852632324008F090E0892F089580E00A
:100850000895F89415BC85B5836085BD14BC84B536
:10086000836084BD789408958630A1F484B56111C5
:1008700004C08F7384BD5E9808956F3F21F48F7319
:1008800084BD5E9A0895806884BD84B58F7B84BDE5
:1008900067BD0895853099F484B5611104C08F7CDB
:1008A00084BD5D9808956F3F21F48F7C84BD5D9A6F
:1008B0000895806284BD84B58F7E84BD68BD08952F
:1008C00067E08BE290E00E94090760E085E290E03B
:1008D0000C94140760E085E290E00E94090767E04D
:1008E0008BE290E00C94140763E085E290E00E94B4
:1008F000090761E085E290E00C94140761E085E26D
:1009000090E00E94090763E085E290E00C941407F0
:1009100067E08BE290E00E94140760E085E290E0DF
:100920000C94140763E085E290E00E94140761E0F4
:1009300085E290E00C94140704978A309105A0F4A6
:10094000855C9F4FFC010C9421080E946A040C9462
:1009500074040E9460040C947E040E946004F7CF2B
:100960000E9488040C94920408958AB180668AB922
:10097000579A84B18B6884B90C942904CF93DF9380
:10098000EC01CB01FB013497E830F105E0F4EB5BBF
:10099000FF4F0C94210828E712C02CE32B872CED85
:1009A0002C8711C02CED2B872CE3FACF2BE92B875A
:1009B0002FEFF6CF2FEF2B872BE9F2CF2CE32B87EE
:1009C000EFCF1B861C860E949C046B8585E00E94ED
:1009D00034046C8586E0DF91CF910C94340467E693
:1009E00070E080E090E00E94A6060E946C000E94E9
:1009F000BD030E94B5040E94A4010C94EF00FB010A
:100A00002081222319F04CE050E009C0FB01218134
:100A1000222319F041E050E002C043E050E00C9482
:100A2000B90264E070E00E94BE0481E090E00C94A2
:100A30002A030F931F93CF93DF938C01EB01CB011C
:100A40000E94C703BE01C8010E94BC06CE010E94DD
:100A5000DF03882341F0CE010E94F303811103C01C
:100A600045E050E017C0CE010E94F303882341F017
:100A7000CE010E94DF03811103C048E050E00AC0AC
:100A80008B81882379F0CE010E94FD03882351F0E9
:100A900049E050E0BE01C801DF91CF911F910F9155
:100AA0000C94B902DF91CF911F910F91089565E0E9
:100AB00070E00E94BE048EEF9FEF0C942A030F9308
:100AC0001F93CF93DF938C01EB01CB010E94C703EF
:100AD000BE01C8010E94BC06CE010E94DF03811145
:100AE00003C046E050E007C0CE010E94E90388231E
:100AF00051F044E050E0BE01C801DF91CF911F9159
:100B00000F910C94B902DF91CF911F910F9108952D
:100B100068E070E00E94BE048DEF9FEF0C942A0302
:100B20000F931F93CF93DF938C01EB01CB010E94B6
:100B3000C703BE01C8010E94BC06CE010E94F30398
:100B4000811103C047E050E007C0CE010E94E903D5
:100B5000882351F044E050E0BE01C801DF91CF91FD
:100B60001F910F910C94B902DF91CF911F910F91BA
:100B7000089566E070E00E94BE0482E090E00C946C
:100B80002A030F931F93CF93DF938C01EB01CB01CB
:100B90000E94C703BE01C8010E94BC06CE010E948C
:100BA000DF03882319F045E050E007C0CE010E9422
:100BB000E903882351F044E050E0BE01C801DF9111
:100BC000CF911F910F910C94B902DF91CF911F919A
:100BD0000F91089567E070E00E94BE0480E090E00D
:100BE0000C942A030F931F93CF93DF938C01EB0197
:100BF000CB010E94C703BE01C8010E94BC06CE0102
:100C00000E94F303882319F048E050E007C0CE01AA
:100C10000E94E903882351F044E050E0BE01C8017E
:100C2000DF91CF911F910F910C94B902DF91CF9179
:100C30001F910F91089564E070E00E94BE048CEF54
:100C40009FEF0C942A030F931F93CF93DF938C0194
:100C5000EB01CB010E94C703BE01C8010E94BC0684
:100C6000CE010E94FD0381110AC044E050E0BE01A4
:100C7000C801DF91CF911F910F910C94B902DF91C0
:100C8000CF911F910F9108950F931F93CF93DF93EF
:100C90008C01EB01CB010E94C703BE01C8010E9479
:100CA000BC06BE01C8010E945D03CE010E94E9039B
:100CB0008823A1F0CE010E94DF03882379F0CE01C2
:100CC0000E94F303882351F042E050E0BE01C801C6
:100CD000DF91CF911F910F910C94B902DF91CF91C9
:100CE0001F910F91089521E0FC01228308950F9335
:100CF0001F93CF93DF938C01EB01CB010E94C703BD
:100D0000BE01C8010E94BC06BE01C801DF91CF919F
:100D10001F910F910C945D038091C00087FFFCCF61
:100D20008091C60008959091C00095FFFCCF8093FC
:100D3000C6000895CF93DF93EC018991882319F0C1
:100D40000E949306FACFDF91CF9108950F931F93DE
:100D5000072F182F292F33270093C5006093C40055
:100D600088E18093C1008EE08093C20082EB91E025
:100D70001F910F910C949A069C01FB01828188239C
:100D800009F446C08091F8019091F90164E670E0A1
:100D90000E94EB07892B99F5D90184851F928F93C7
:100DA00083851F928F9382858F9381858F93808512
:100DB0008F9387818F9386818F9385818F93ED9118
:100DC000FC9183818F9382818F9388EB91E09F9335
:100DD0008F9384EE91E09F938F930E94480984EE55
:100DE00091E00E949A061092F9011092F8018DB7D5
:100DF0009EB740960FB6F8949EBF0FBE8DBF8091F0
:100E0000F8019091F90101969093F9018093F8010E
:100E10000895FC01408121E030E001C0220F6A9575
:100E2000EAF7242B20830895FC01908121E030E033
:100E300001C0220F6A95EAF720952923208308959F
:100E4000FC01408121E030E001C0220F6A95EAF701
:100E5000242720830895EF92FF920F931F93CF933F
:100E6000DF93CDB7DEB7AB970FB6F894DEBF0FBEFA
:100E7000CDBF7E018FE1E80EF11C8DE0F7011192EC
:100E80008A95E9F781E089A38AA383E08BA30FEF1A
:100E900014E02FEE34E043E351E060E070E0CE0177
:100EA00001960E94750209E115E021E135E048E371
:100EB00051E064E070E0CE0101960E9475020FE5FA
:100EC00015E027E535E040E451E065E070E0CE0153
:100ED00001960E94750200E915E028E835E04AE431
:100EE00051E068E070E0CE0101960E94750201ECCD
:100EF00015E029EB35E045E551E066E070E0CE0114
:100F000001960E94750202EF15E02AEE35E04FE5EA
:100F100051E067E070E0CE0101960E94750208EE94
:100F200011E020EE31E04AE651E062E070E0CE01EF
:100F300001960E94750204E416E020E030E044E7E8
:100F400051E061E070E0CE0101960E94750203E27B
:100F500016E02BE136E043E851E063E070E0CE01BB
:100F600001960E94750206E211E026E131E04FE8A9
:100F700051E069E070E0CE0101960E9475020DE338
:100F800012E029E232E049E951E06AE070E0CE0186
:100F900001960E94750207E716E023E736E046EA6D
:100FA00051E06CE070E0CE0101960E947502B7013D
:100FB000CE0101960E94E70280E090E0AB960FB66A
:100FC000F894DEBF0FBECDBFDF91CF911F910F917F
:100FD000FF90EF900895AA1BBB1B51E107C0AA1F09
:100FE000BB1FA617B70710F0A61BB70B881F991FCA
:100FF0005A95A9F780959095BC01CD010895A1E27D
:101000001A2EAA1BBB1BFD010DC0AA1FBB1FEE1F82
:10101000FF1FA217B307E407F50720F0A21BB30BCD
:10102000E40BF50B661F771F881F991F1A9469F749
:1010300060957095809590959B01AC01BD01CF01A5
:101040000895EE0FFF1F0590F491E02D09940F9382
:101050001F93CF93DF938230910510F482E090E0EC
:10106000E091FE01F091FF0120E030E0A0E0B0E06F
:10107000309719F140815181028113814817590736
:10108000C8F08417950769F4109731F012960C9305
:10109000129713961C9327C00093FE011093FF0133
:1010A00022C02115310519F04217530718F49A018F
:1010B000BD01EF01DF01F801DBCF21153105F9F0AA
:1010C000281B390B2430310580F48A819B816115FE
:1010D000710521F0FB019383828304C09093FF018B
:1010E0008093FE01FE01329644C0FE01E20FF31F21
:1010F0008193919322503109398328833AC02091FA
:10110000FC013091FD01232B41F420910401309129
:1011100005013093FD012093FC01209102013091E3
:1011200003012115310541F42DB73EB74091060169
:1011300050910701241B350BE091FC01F091FD015A
:10114000E217F307A0F42E1B3F0B2817390778F09E
:10115000AC014E5F5F4F2417350748F04E0F5F1FFD
:101160005093FD014093FC018193919302C0E0E014
:10117000F0E0CF01DF91CF911F910F910895CF93B0
:10118000DF93009709F481C0FC0132971382128229
:10119000A091FE01B091FF01109781F4208131816F
:1011A000820F931F2091FC013091FD012817390710
:1011B00051F5F093FD01E093FC0167C0ED0120E0E3
:1011C00030E0CE17DF0740F44A815B819E01411574
:1011D0005105F1F0EA01F5CFD383C28340815181FB
:1011E000840F951FC817D90759F488819981840FF6
:1011F000951F0296918380838A819B81938382834A
:101200002115310529F4F093FF01E093FE013DC063
:10121000E901FB83EA8349915991C40FD51FEC176B
:10122000FD0761F480819181840F951F0296E90189
:1012300099838883828193819B838A83E0E0F0E0B5
:1012400012968D919C911397009719F0FD01DC0186
:10125000F7CF8D919C9111979D012E5F3F4F820F8B
:10126000931F2091FC013091FD012817390769F483
:10127000309729F41092FF011092FE0102C01382F0
:101280001282B093FD01A093FC01DF91CF910895EC
:10129000AEE0B0E0EEE4F9E00C94090C0D891E8993
:1012A00086E08C831A8309838FEF9FE79E838D836B
:1012B000AE01475E5F4F6F89788DCE0101960E9427
:1012C0006A09EF81F885E00FF11F10822E96E4E0A5
:1012D0000C94250CABE0B0E0E0E7F9E00C94FB0BDC
:1012E0006C017B018A01FC0117821682838181FFD8
:1012F000CCC1CE0101963C01F6019381F70193FD2B
:10130000859193FF81917F01882309F4BAC18532C9
:1013100039F493FD859193FF81917F01853229F402
:10132000B60190E00E94610BE7CF912C212C312C6B
:10133000FFE1F315D8F08B3279F038F4803279F090
:101340008332A1F4232D20611DC08D3261F08033E2
:1013500069F4232D216016C0832D8260382EE32D81
:10136000E4603E2E2AC0F32DF8601DC037FC2DC06E
:1013700020ED280F2A3040F08E32B9F436FC81C1BE
:10138000232D2064322E19C036FE06C08AE0989EB6
:10139000200D1124922E11C0EAE02E9E200D112462
:1013A000222EF32DF0623F2E08C08C3621F4832DBF
:1013B0008068382E02C0883641F4F70193FD85918C
:1013C00093FF81917F018111B3CF982F9F7D955419
:1013D000933028F40C5F1F4F9FE399830DC0833631
:1013E00031F0833771F0833509F059C021C0F8011D
:1013F000808189830E5F1F4F88248394912C530131
:1014000013C02801F2E04F0E511CF801A080B180FA
:1014100036FE03C0692D70E002C06FEF7FEFC5019B
:101420000E94560B4C018201F32DFF773F2E16C010
:10143000280122E0420E511CF801A080B18036FE46
:1014400003C0692D70E002C06FEF7FEFC5010E94FD
:101450004B0B4C01F32DF0683F2E820133FC1BC077
:10146000822D90E088169906B0F4B60180E290E0F3
:101470000E94610B2A94F4CFF50137FC859137FE69
:1014800081915F01B60190E00E94610B21102A94C6
:1014900021E0821A91088114910471F7E8C0843622
:1014A00011F0893641F5F80137FE07C0608171817E
:1014B000828193810C5F1F4F08C060817181072E6C
:1014C000000C880B990B0E5F1F4FF32DFF763F2EFC
:1014D00097FF09C090958095709561957F4F8F4FCC
:1014E0009F4FF0683F2E2AE030E0A3010E949D0B41
:1014F000882E861845C0853731F4232D2F7EB22ED5
:101500002AE030E025C0932D997FB92E8F36C1F0A7
:1015100018F4883579F0B5C0803719F0883721F094
:10152000B0C0E92FE061BE2EB4FE0DC0FB2DF4600B
:10153000BF2E09C034FE0AC0292F2660B22E06C075
:1015400028E030E005C020E130E002C020E132E0D8
:10155000F801B7FE07C060817181828193810C5FC1
:101560001F4F06C06081718180E090E00E5F1F4FC9
:10157000A3010E949D0B882E8618FB2DFF773F2E1E
:1015800036FE0DC0232D2E7FA22E891458F434FE72
:101590000BC032FC09C0832D8E7EA82E05C0B82C4E
:1015A000A32C03C0B82C01C0B92CA4FE0FC0FE01AF
:1015B000E80DF11D8081803321F49A2D997EA92EAA
:1015C00009C0A2FE06C0B394B39404C08A2D8678E5
:1015D00009F0B394A3FC11C0A0FE06C0B21488F4B5
:1015E000280C922C9B180EC0B21460F4B60180E255
:1015F00090E00E94610BB394F7CFB21418F42B184B
:1016000002C0982C212CA4FE10C0B60180E390E00B
:101610000E94610BA2FE17C0A1FC03C088E790E006
:1016200002C088E590E0B6010CC08A2D867859F09A
:10163000A1FE02C08BE201C080E2A7FC8DE2B601F0
:1016400090E00E94610B891438F4B60180E390E0C9
:101650000E94610B9A94F7CF8A94F301E80DF11D73
:101660008081B60190E00E94610B8110F5CF2220AD
:1016700009F442CEB60180E290E00E94610B2A9408
:10168000F6CFF6018681978102C08FEF9FEF2B96F0
:10169000E2E10C94170CFC010590615070400110C0
:1016A000D8F7809590958E0F9F1F0895FC0161508B
:1016B000704001900110D8F7809590958E0F9F1F74
:1016C00008950F931F93CF93DF93FB01238121FD97
:1016D00003C08FEF9FEF2CC022FF16C046815781B9
:1016E000248135814217530744F4A081B1819D01C3
:1016F0002F5F3F4F318320838C93268137812F5F6B
:101700003F4F3783268314C08B01EC01FB0100841B
:10171000F185E02D0995892BE1F6D80116968D917A
:101720009C911797019617969C938E931697CE01CE
:10173000DF91CF911F910F910895FA01AA272830C8
:1017400051F1203181F1E8946F936E7F6E5F7F4F8E
:101750008F4F9F4FAF4FB1E03ED0B4E03CD0670F0A
:10176000781F891F9A1FA11D680F791F8A1F911D5D
:10177000A11D6A0F711D811D911DA11D20D009F4AD
:1017800068943F912AE0269F11243019305D3193EF
:10179000DEF6CF010895462F4770405D4193B3E0D8
:1017A0000FD0C9F7F6CF462F4F70405D4A3318F07F
:1017B000495D31FD4052419302D0A9F7EACFB4E030
:1017C000A6959795879577956795BA95C9F70097E8
:1017D0006105710508959B01AC010A2E0694579589
:1017E000479537952795BA95C9F7620F731F841FE0
:1017F000951FA01D08952F923F924F925F926F9276
:101800007F928F929F92AF92BF92CF92DF92EF9290
:10181000FF920F931F93CF93DF93CDB7DEB7CA1B11
:10182000DB0B0FB6F894DEBF0FBECDBF09942A883C
:10183000398848885F846E847D848C849B84AA84E4
:10184000B984C884DF80EE80FD800C811B81AA8171
:10185000B981CE0FD11D0FB6F894DEBF0FBECDBF3C
:08186000ED010895F894FFCF9B
:10186800FCFF0000000220000A456E746572656482
:1018780020434865636B206C6170210A000A594156
:10188800592C2046494E4953484544210A00457879
:10189800697400494E495400464F5257415244001A
:1018A8004C4546545F534F46540052494748545F8D
:1018B800534F4654004C4546545F484152440052E9
:1018C800494748545F4841524400434F554E544499
:1018D8004F574E00434845434B5F53544152545071
:1018E8004F53004C454156455F53544152540043B1
:1018F8004845434B5F4C415000474F414C5F524570
:1019080041434845440043414C4942524154494FA0
:101918004E003A443A440A002573204C3A25642084
:101928007C204D3A2564207C20523A25640A2025E3
:0A19380064207C2025640A0A0000E8
:00000001FF
