:100000000C9434000C9451000C9451000C94510049
:100010000C9451000C9451000C9451000C9451001C
:100020000C9451000C9451000C9451000C94030258
:100030000C9451000C9451000C9451000C945100FC
:100040000C9451000C9451000C9451000C945100EC
:100050000C9451000C9451000C9451000C945100DC
:100060000C9451000C94510011241FBECFEFD8E026
:10007000DEBFCDBF12E0A0E0B1E0EEE7F2E102C0EA
:1000800005900D92A638B107D9F722E0A6E8B2E0B4
:1000900001C01D92AB39B207E1F70E946F020C94C8
:1000A0003D090C9400002FEF83ED90E32150804038
:1000B0009040E1F700C0000098E288E10FB6F894A4
:1000C000A895809360000FBE90936000FFCFF894D6
:1000D00015BC85B5836085BD14BC84B5836084BDC3
:1000E000789408958630A1F484B5611104C08F73AB
:1000F00084BD5E9808956F3F21F48F7384BD5E9A2E
:100100000895806884BD84B58F7B84BD67BD0895E4
:10011000853099F484B5611104C08F7C84BD5D98ED
:1001200008956F3F21F48F7C84BD5D9A08958062AD
:1001300084BD84B58F7E84BD68BD08958091C00064
:1001400087FF03C08091C600089580E008959091D4
:10015000C00095FFFCCF8093C6000895CF93DF9336
:10016000EC018991882319F00E94A700FACFDF9152
:10017000CF9108950F931F93072F182F292F3327FF
:100180000093C5006093C40088E18093C1008EE0B5
:100190008093C20087E392E01F910F910C94AE0010
:1001A000389839983A9810927C0080917C0080644D
:1001B00080937C0080917A00876080937A008091A0
:1001C0007A00806880937A0080917A0080648093BE
:1001D0007A0080917A0086FDFCCF80917800909122
:1001E0007900089590917C00987F90937C00909185
:1001F0007C00892B80937C0080917A0080648093BE
:100200007A0080917A0086FDFCCF809178009091F1
:1002100079000895CF92DF92EF92FF921F93CF93D0
:10022000DF93182FD62FC0E0C12CD12C7601CD172B
:1002300049F0812F0E94F200C80ED91EE11CF11C6A
:10024000CF5FF5CFC701B6010E94A4046B017C010A
:100250006C2F70E080E090E00E94A4049B01AC0150
:10026000C701B6010E9403040E947504CB01DF910F
:10027000CF911F91FF90EF90DF90CF9008955C9801
:100280005C9A5C980895EF92FF920F931F93CF931F
:10029000DF938C01C0E0D0E0EE24E394F12CF80170
:1002A0002081C7010C2E01C0880F0A94EAF782232F
:1002B00011F02A9A01C02A980E943F012196C3306A
:1002C000D10569F7DF91CF911F910F91FF90EF90CA
:1002D0000895FC018081232B11F0846001C08B7F85
:1002E00080838081672B11F0826001C08D7F8083C5
:1002F0008081452B11F0816001C08E7F808308953D
:10030000FC0110820C944301229A549A3A9838982E
:100310003998089587B1887F87B967E670E080E0F3
:1003200090E00E94BA008AB180668AB9579A84B177
:100330008B6084B90E9467006BE985E00E947200BF
:100340006BE986E00C947200289829985F9A2B9AA2
:1003500066E986E00E9472006BE985E00C94720009
:100360005F982B98289A299A0895289829985F9839
:100370002B98089568EC86E00E94720068EC85E096
:100380000E9472005F9A2B982898299A089568EC29
:1003900086E00E94720068EC85E00E9472005F981F
:1003A0002B9A289A299808955F980895289A089575
:1003B0006AEA86E00E9472006AEA85E00E947200A2
:1003C0005F9A2B982898299A08956AEA86E00E94F5
:1003D00072006AEA85E00E9472005F982B9A289A60
:1003E0002998089529980895299A08956AEF86E032
:1003F0000E9472006AEF85E00E9472005F9A28985E
:10040000299A2B9808951F920F920FB60F921124DC
:100410002F935F936F937F938F939F93AF93BF932C
:1004200080918C0290918D02019690938D02809321
:100430008C028091860290918702019690938702A8
:10044000809386028432944FB9F481E090E09093D7
:1004500091028093900280919602882349F08091C6
:100460009402909195020196909395028093940244
:10047000109287021092860280918C0290918D02D8
:100480006AE678E10E94EF03892B31F481E090E085
:1004900090938B0280938A02BF91AF919F918F912D
:1004A0007F916F915F912F910F900FBE0F901F90D2
:1004B0001895F894E1E8F0E0808181608083808184
:1004C00088608083EFE6F0E08081826080838FEF38
:1004D00090E0909389008093880078940895CF935A
:1004E000DF93CDB7DEB7E5970FB6F894DEBF0FBE4A
:1004F000CDBF10929102109290021092950210922C
:10050000940210928D0210928C020E948A010E9425
:10051000D0000E94840181E090E00E9432057C01BD
:100520000E948001F701F081FDAB0E945902212C4D
:10053000312C1BAA412C00E010E01CAACE01019630
:100540003C0164E180E00E940A015C0164E181E019
:100550000E940A014C0164E182E00E940A016C01E0
:1005600021E030E083ECA81681E0B80610F420E02A
:1005700030E041E050E09FE5C91691E0D90610F463
:1005800040E050E061E070E0E5EF8E16E1E09E06AD
:1005900010F460E070E0C7010E946901F70150802B
:1005A000FDA9F51529F0C7010E944301F70150800C
:1005B0000E949E00833549F481E080939602F5EF16
:1005C0008F16F1E09F06A8F582C0803531F42BA983
:1005D000233501F50E94B501F0C0843589F48BA95B
:1005E000833551F40E94F60186E091E00E94AE004E
:1005F00094E59BAB5DAAA5CFEBA9E03559F4F2CF0A
:10060000883421F4FBA9F43529F4ECCF853411F4B6
:1006100095E4EFCF80918A0290918B02892B21F093
:100620008FE091E00E94AE002BA9233509F0BDC0F8
:10063000C3CF83ECA81681E0B80608F448C09FE554
:10064000C91691E0D90608F442C080918C029091BD
:100650008D02813D974008F444C0411042C087E2BA
:1006600091E00E94AE000F5F1F4F0130110519F499
:100670008BE391E00BC00230110519F485E591E0A0
:1006800005C00330110539F482E991E00E94AE0003
:100690004424439426C00E94B50180919402909115
:1006A00095029F938F938CEC91E09F938F938E0193
:1006B0000F5F1F4F1F930F930E945306C8010E94A4
:1006C000AE0089ED91E00E94AE000E9453001092AE
:1006D0008D0210928C02F5EF8F16F1E09F0648F024
:1006E000412C0E94A40123ECA21621E0B20670F175
:1006F00035C083ECA81681E0B80658F0332019F015
:100700000E94BA0163C00E94D801212C3324339483
:100710005DC09FE5C91691E0D90658F0222019F076
:100720000E94C70157C00E94E50122242394312C66
:1007300051C0ECA9EE2329F00E94BA01332433946E
:100740004CC00E94C7012224239447C0212C312C85
:10075000FFE5CF16F1E0DF0628F03DC0212C312C5B
:1007600021E02CAB8091900290919102892B19F499
:10077000E3E5EBAB3FCF10929102109290021F93F2
:100780000F938EEE91E09F938F937F926F920E94D2
:100790005306C3010E94AE000F900F900F900F9070
:1007A0000F900F90F3E5FBAB25CF2BA9243509F46F
:1007B00019CF203509F01ECF0DCF0E949E00803545
:1007C00089F387E092E00E94AE00F7CF412C81E0F0
:1007D0008CABC8CF412C1CAAC5CF412CC3CFAA1BC0
:1007E000BB1B51E107C0AA1FBB1FA617B70710F01C
:1007F000A61BB70B881F991F5A95A9F7809590954E
:10080000BC01CD0108950E9417040C94F8040E94C5
:10081000F10458F00E94EA0440F029F45F3F29F007
:100820000C94E10451110C942C050C94E7040E94E3
:10083000090568F39923B1F3552391F3951B550BE3
:10084000BB27AA2762177307840738F09F5F5F4FA3
:10085000220F331F441FAA1FA9F335D00E2E3AF0E2
:10086000E0E832D091505040E695001CCAF72BD0FA
:10087000FE2F29D0660F771F881FBB1F261737074B
:100880004807AB07B0E809F0BB0B802DBF01FF277D
:1008900093585F4F3AF09E3F510578F00C94E10475
:1008A0000C942C055F3FE4F3983ED4F3869577953E
:1008B0006795B795F7959F5FC9F7880F911D969536
:1008C000879597F90895E1E0660F771F881FBB1F92
:1008D000621773078407BA0720F0621B730B840B3F
:1008E000BA0BEE1F88F7E09508950E94110588F075
:1008F0009F5798F0B92F9927B751B0F0E1F0660FE4
:10090000771F881F991F1AF0BA95C9F714C0B13024
:1009100091F00E942B05B1E008950C942B05672FF0
:10092000782F8827B85F39F0B93FCCF38695779553
:100930006795B395D9F73EF490958095709561953C
:100940007F4F8F4F9F4F0895E89409C097FB3EF467
:1009500090958095709561957F4F8F4F9F4F99230C
:10096000A9F0F92F96E9BB279395F695879577958A
:100970006795B795F111F8CFFAF4BB0F11F460FF4A
:100980001BC06F5F7F4F8F4F9F4F16C0882311F0A2
:1009900096E911C0772321F09EE8872F762F05C0B6
:1009A000662371F096E8862F70E060E02AF09A9551
:1009B000660F771F881FDAF7880F9695879597F946
:1009C000089597F99F6780E870E060E008959FEFD1
:1009D00080EC089500240A941616170618060906D6
:1009E000089500240A9412161306140605060895A5
:1009F000092E0394000C11F4882352F0BB0F40F42D
:100A0000BF2B11F460FF04C06F5F7F4F8F4F9F4F6C
:100A1000089557FD9058440F551F59F05F3F71F0EE
:100A20004795880F97FB991F61F09F3F79F0879555
:100A30000895121613061406551FF2CF4695F1DFDE
:100A400008C0161617061806991FF1CF869571056E
:100A5000610508940895E894BB2766277727CB01A2
:100A600097F908950F931F93CF93DF9382309105E9
:100A700010F482E090E0E0919902F0919A0220E077
:100A800030E0A0E0B0E0309719F14081518102815F
:100A9000138148175907C8F08417950769F4109710
:100AA00031F012960C93129713961C9327C0009363
:100AB000990210939A0222C02115310519F04217AC
:100AC000530718F49A01BD01EF01DF01F801DBCFF4
:100AD00021153105F9F0281B390B2430310580F43C
:100AE0008A819B816115710521F0FB0193838283CB
:100AF00004C090939A0280939902FE01329644C0FA
:100B0000FE01E20FF31F8193919322503109398343
:100B100028833AC02091970230919802232B41F408
:100B200020910201309103013093980220939702A3
:100B300020910001309101012115310541F42DB7BB
:100B40003EB74091040150910501241B350BE09103
:100B50009702F0919802E217F307A0F42E1B3F0BC7
:100B60002817390778F0AC014E5F5F4F241735071F
:100B700048F04E0F5F1F5093980240939702819365
:100B8000919302C0E0E0F0E0CF01DF91CF911F919F
:100B90000F910895CF93DF93009709F481C0FC0172
:100BA000329713821282A0919902B0919A02109703
:100BB00081F420813181820F931F2091970230911F
:100BC00098022817390751F5F0939802E09397029D
:100BD00067C0ED0120E030E0CE17DF0740F44A8126
:100BE0005B819E0141155105F1F0EA01F5CFD383F8
:100BF000C28340815181840F951FC817D90759F4CA
:100C000088819981840F951F0296918380838A81C0
:100C10009B81938382832115310529F4F0939A02F5
:100C2000E09399023DC0E901FB83EA834991599120
:100C3000C40FD51FEC17FD0761F480819181840FEB
:100C4000951F0296E90199838883828193819B8312
:100C50008A83E0E0F0E012968D919C9113970097C3
:100C600019F0FD01DC01F7CF8D919C9111979D0149
:100C70002E5F3F4F820F931F209197023091980271
:100C80002817390769F4309729F410929A021092C4
:100C9000990202C013821282B0939802A093970225
:100CA000DF91CF910895AEE0B0E0E9E5F6E00C9475
:100CB00014090D891E8986E08C831A8309838FEFBE
:100CC0009FE79E838D83AE01475E5F4F6F89788D6E
:100CD000CE0101960E947506EF81F885E00FF11FA5
:100CE00010822E96E4E00C943009ABE0B0E0EBE724
:100CF000F6E00C9406096C017B018A01FC01178265
:100D00001682838181FFCCC1CE0101963C01F601A0
:100D10009381F70193FD859193FF81917F01882352
:100D200009F4BAC1853239F493FD859193FF81911D
:100D30007F01853229F4B60190E00E946C08E7CF6C
:100D4000912C212C312CFFE1F315D8F08B3279F066
:100D500038F4803279F08332A1F4232D20611DC054
:100D60008D3261F0803369F4232D216016C0832D0C
:100D70008260382EE32DE4603E2E2AC0F32DF86009
:100D80001DC037FC2DC020ED280F2A3040F08E32D8
:100D9000B9F436FC81C1232D2064322E19C036FEF1
:100DA00006C08AE0989E200D1124922E11C0EAE020
:100DB0002E9E200D1124222EF32DF0623F2E08C00E
:100DC0008C3621F4832D8068382E02C0883641F499
:100DD000F70193FD859193FF81917F018111B3CF3D
:100DE000982F9F7D9554933028F40C5F1F4F9FE3FD
:100DF00099830DC0833631F0833771F0833509F064
:100E000059C021C0F801808189830E5F1F4F88245B
:100E10008394912C530113C02801F2E04F0E511C12
:100E2000F801A080B18036FE03C0692D70E002C0D9
:100E30006FEF7FEFC5010E9461084C018201F32D25
:100E4000FF773F2E16C0280122E0420E511CF80108
:100E5000A080B18036FE03C0692D70E002C06FEF44
:100E60007FEFC5010E9456084C01F32DF0683F2E1C
:100E7000820133FC1BC0822D90E088169906B0F4E5
:100E8000B60180E290E00E946C082A94F4CFF5014C
:100E900037FC859137FE81915F01B60190E00E9499
:100EA0006C0821102A9421E0821A9108811491047F
:100EB00071F7E8C0843611F0893641F5F80137FE44
:100EC00007C060817181828193810C5F1F4F08C0D0
:100ED00060817181072E000C880B990B0E5F1F4FEC
:100EE000F32DFF763F2E97FF09C090958095709562
:100EF00061957F4F8F4F9F4FF0683F2E2AE030E083
:100F0000A3010E94A808882E861845C0853731F4B1
:100F1000232D2F7EB22E2AE030E025C0932D997F1D
:100F2000B92E8F36C1F018F4883579F0B5C0803706
:100F300019F0883721F0B0C0E92FE061BE2EB4FE71
:100F40000DC0FB2DF460BF2E09C034FE0AC0292F4E
:100F50002660B22E06C028E030E005C020E130E077
:100F600002C020E132E0F801B7FE07C06081718164
:100F7000828193810C5F1F4F06C06081718180E088
:100F800090E00E5F1F4FA3010E94A808882E8618CC
:100F9000FB2DFF773F2E36FE0DC0232D2E7FA22E78
:100FA000891458F434FE0BC032FC09C0832D8E7EA8
:100FB000A82E05C0B82CA32C03C0B82C01C0B92C96
:100FC000A4FE0FC0FE01E80DF11D8081803321F4E5
:100FD0009A2D997EA92E09C0A2FE06C0B394B3949F
:100FE00004C08A2D867809F0B394A3FC11C0A0FE3A
:100FF00006C0B21488F4280C922C9B180EC0B214B0
:1010000060F4B60180E290E00E946C08B394F7CFE0
:10101000B21418F42B1802C0982C212CA4FE10C076
:10102000B60180E390E00E946C08A2FE17C0A1FC0C
:1010300003C088E790E002C088E590E0B6010CC0EC
:101040008A2D867859F0A1FE02C08BE201C080E2B1
:10105000A7FC8DE2B60190E00E946C08891438F478
:10106000B60180E390E00E946C089A94F7CF8A94CE
:10107000F301E80DF11D8081B60190E00E946C083B
:101080008110F5CF222009F442CEB60180E290E033
:101090000E946C082A94F6CFF6018681978102C0DF
:1010A0008FEF9FEF2B96E2E10C942209FC01059053
:1010B000615070400110D8F7809590958E0F9F1F5A
:1010C0000895FC016150704001900110D8F780959F
:1010D00090958E0F9F1F08950F931F93CF93DF93CB
:1010E000FB01238121FD03C08FEF9FEF2CC022FF66
:1010F00016C046815781248135814217530744F435
:10110000A081B1819D012F5F3F4F318320838C935C
:10111000268137812F5F3F4F3783268314C08B0191
:10112000EC01FB010084F185E02D0995892BE1F6A6
:10113000D80116968D919C911797019617969C93BE
:101140008E931697CE01DF91CF911F910F91089545
:10115000FA01AA27283051F1203181F1E8946F93E8
:101160006E7F6E5F7F4F8F4F9F4FAF4FB1E03ED08E
:10117000B4E03CD0670F781F891F9A1FA11D680F2C
:10118000791F8A1F911DA11D6A0F711D811D911D5F
:10119000A11D20D009F468943F912AE0269F1124D4
:1011A0003019305D3193DEF6CF010895462F477038
:1011B000405D4193B3E00FD0C9F7F6CF462F4F7093
:1011C000405D4A3318F0495D31FD4052419302D0F1
:1011D000A9F7EACFB4E0A695979587957795679597
:1011E000BA95C9F700976105710508959B01AC0197
:1011F0000A2E06945795479537952795BA95C9F7BE
:10120000620F731F841F951FA01D08952F923F9298
:101210004F925F926F927F928F929F92AF92BF9206
:10122000CF92DF92EF92FF920F931F93CF93DF93B2
:10123000CDB7DEB7CA1BDB0B0FB6F894DEBF0FBE0F
:10124000CDBF09942A88398848885F846E847D845C
:101250008C849B84AA84B984C884DF80EE80FD805E
:101260000C811B81AA81B981CE0FD11D0FB6F894D4
:0E127000DEBF0FBECDBFED010895F894FFCF95
:10127E0000009B0220004C616C614C61200A00480A
:10128E00657920796F75206B6E6F77207768617442
:10129E0020746F20646F0048657265204920616D6F
:1012AE00206F6E6365206D6F726500437572726597
:1012BE006E746C79204920676F20726F756E642092
:1012CE006F6E650A005945414820594541482C64C6
:1012DE006F6E6520666972737420206C61702C20AD
:1012EE006665656C696E672070726F75642C676FCA
:1012FE00696E6720666F72206C6F617020322F33BB
:10130E000A005945414820594541482C646F6E6585
:10131E0020326E64206C61702C206665656C696E7F
:10132E00672070726F75642C676F696E6720666FC9
:10133E0072206C6F617020332F330A0066696E69FC
:10134E00736865642025640A00726573657420698C
:10135E006E2035205365636F6E6473200A004375EB
:10136E007272656E746C79204920676F20726F758A
:10137E006E642025640A00506175736564202E2EFC
:10138E002E2E2E2E2E2E7A7A7A7A7A202E2E2E2E01
:10139E005020616765696E20746F20756E7061757F
:1013AE007365206D650A0053616D6520736F7279E8
:1013BE002C646966666572656E74207374756465F7
:1013CE006E742E2E2E2E2E2E2E2E2E2E626F7269B5
:1013DE006E672C494553206E6565647320746F20CB
:1013EE007265666163746F72207468697320636FCF
:0613FE007572736500002A
:00000001FF
